:100000000C9434000C943E000C943E000C943E0082
:100010000C943E000C943E000C943E000C943E0068
:100020000C943E000C943E000C943E000C943E0058
:100030000C943E000C943E000C943E000C943E0048
:100040000C943E000C943E000C943E000C943E0038
:100050000C943E000C943E000C943E000C943E0028
:100060000C943E000C943E0011241FBECFEFD8E04C
:10007000DEBFCDBF0E9440000C9460000C940000D5
:10008000CF93DF9300D0CDB7DEB784E290E024E2D7
:1000900030E0F90120812260FC01208385E290E0BC
:1000A00025E230E0F901308122E02327FC012083A2
:1000B0001A82198289819A8101969A838983FACF5B
:0400C000F894FFCFE2
:00000001FF
